{
  "transactions": [
    {
      "hash": "0x0f0c2de84a27dcdbedd8890ddc945d5c025fd7c73edf44f9fc8004258733b519",
      "transactionType": "CALL",
      "contractName": null,
      "contractAddress": "0x2b52ca412b509f0dea4870e1d13ff33cac7f073c",
      "function": "createFlightMarket(string,string,string,string,uint256,uint256)",
      "arguments": [
        "TEST789",
        "JFK",
        "LAX",
        "AA",
        "1771011267",
        "0"
      ],
      "transaction": {
        "from": "0x5c24d44ea5c8324f71b5147d9aac500a90526750",
        "to": "0x2b52ca412b509f0dea4870e1d13ff33cac7f073c",
        "gas": "0x550f2ce9",
        "value": "0x0",
        "input": "0x860ebf5800000000000000000000000000000000000000000000000000000000000000c000000000000000000000000000000000000000000000000000000000000001000000000000000000000000000000000000000000000000000000000000000140000000000000000000000000000000000000000000000000000000000000018000000000000000000000000000000000000000000000000000000000698f7cc300000000000000000000000000000000000000000000000000000000000000000000000000000000000000000000000000000000000000000000000000000007544553543738390000000000000000000000000000000000000000000000000000000000000000000000000000000000000000000000000000000000000000034a464b000000000000000000000000000000000000000000000000000000000000000000000000000000000000000000000000000000000000000000000000034c4158000000000000000000000000000000000000000000000000000000000000000000000000000000000000000000000000000000000000000000000000024141000000000000000000000000000000000000000000000000000000000000",
        "nonce": "0x22",
        "chainId": "0x138b"
      },
      "additionalContracts": [],
      "isFixedGasLimit": false
    }
  ],
  "receipts": [
    {
      "status": "0x1",
      "cumulativeGasUsed": "0x361b2e94",
      "logs": [
        {
          "address": "0x2b52ca412b509f0dea4870e1d13ff33cac7f073c",
          "topics": [
            "0x4c419e8b68c376bd288769f564f60006c6a3fa60237c4660537aaf841e7e1b30",
            "0x14fb9cfbe2a33a8d549f0b9227717a85c0beb298d7593906d22b26e20a8f0c2a"
          ],
          "data": "0x000000000000000000000000000000000000000000000000000000000000008000000000000000000000000000000000000000000000000000000000698f7cc300000000000000000000000000000000000000000000000000000000698f7c870000000000000000000000000000000000000000000000000000000005f5e10000000000000000000000000000000000000000000000000000000000000000075445535437383900000000000000000000000000000000000000000000000000",
          "blockHash": "0x52f38dcc917744cf0e4c1ddca534a42413acfbb6928ca4432125a75acc6ff171",
          "blockNumber": "0x1fe368d",
          "blockTimestamp": "0x6967effb",
          "transactionHash": "0x0f0c2de84a27dcdbedd8890ddc945d5c025fd7c73edf44f9fc8004258733b519",
          "transactionIndex": "0x1",
          "logIndex": "0x0",
          "removed": false
        }
      ],
      "logsBloom": "0x00000000000000000000000000000000000000000000000000000000000000000000000000000000000000000000000010000004000008000000000000001000000000000000000000000000000000000000000000000000000000000000000000000000000000000000000000000000000000000000000000000000000000000000000000000000000000000000000000000000000000000000000000080000000080000000000000000000000000000000000000000000100000000000000000000000000000000000000000000000000000000000000000000000000000000000000000000000000000000000000000000000000000000000000000000009",
      "type": "0x2",
      "transactionHash": "0x0f0c2de84a27dcdbedd8890ddc945d5c025fd7c73edf44f9fc8004258733b519",
      "transactionIndex": "0x1",
      "blockHash": "0x52f38dcc917744cf0e4c1ddca534a42413acfbb6928ca4432125a75acc6ff171",
      "blockNumber": "0x1fe368d",
      "gasUsed": "0x361a7777",
      "effectiveGasPrice": "0x132b3a0",
      "from": "0x5c24d44ea5c8324f71b5147d9aac500a90526750",
      "to": "0x2b52ca412b509f0dea4870e1d13ff33cac7f073c",
      "contractAddress": null,
      "l1Fee": "0x8178cefc7d9d",
      "l1FeeScalar": "0.01",
      "l1GasPrice": "0x3addb7f6",
      "l1GasUsed": "0x1088",
      "tokenRatio": "0xd4e"
    }
  ],
  "libraries": [],
  "pending": [],
  "returns": {},
  "timestamp": 1768419324313,
  "chain": 5003,
  "commit": "346c183"
}