{
  "transactions": [
    {
      "hash": "0xdaa31fcb6517a31d6fea3fb776b7c7713dbb647c95f8671e11065acf389ce2ab",
      "transactionType": "CALL",
      "contractName": null,
      "contractAddress": "0x2b52ca412b509f0dea4870e1d13ff33cac7f073c",
      "function": "createFlightMarket(string,string,string,string,uint256,uint256)",
      "arguments": [
        "UA2547",
        "ORD",
        "LAX",
        "UA",
        "1768421925",
        "0"
      ],
      "transaction": {
        "from": "0x5c24d44ea5c8324f71b5147d9aac500a90526750",
        "to": "0x2b52ca412b509f0dea4870e1d13ff33cac7f073c",
        "gas": "0x4f7754fb",
        "value": "0x0",
        "input": "0x860ebf5800000000000000000000000000000000000000000000000000000000000000c0000000000000000000000000000000000000000000000000000000000000010000000000000000000000000000000000000000000000000000000000000001400000000000000000000000000000000000000000000000000000000000000180000000000000000000000000000000000000000000000000000000006967fa2500000000000000000000000000000000000000000000000000000000000000000000000000000000000000000000000000000000000000000000000000000006554132353437000000000000000000000000000000000000000000000000000000000000000000000000000000000000000000000000000000000000000000034f5244000000000000000000000000000000000000000000000000000000000000000000000000000000000000000000000000000000000000000000000000034c4158000000000000000000000000000000000000000000000000000000000000000000000000000000000000000000000000000000000000000000000000025541000000000000000000000000000000000000000000000000000000000000",
        "nonce": "0x23",
        "chainId": "0x138b"
      },
      "additionalContracts": [],
      "isFixedGasLimit": false
    }
  ],
  "receipts": [
    {
      "status": "0x1",
      "cumulativeGasUsed": "0x3291f318",
      "logs": [
        {
          "address": "0x2b52ca412b509f0dea4870e1d13ff33cac7f073c",
          "topics": [
            "0x4c419e8b68c376bd288769f564f60006c6a3fa60237c4660537aaf841e7e1b30",
            "0x06761b7a707e48d23dc0e41a8e42a68a8c69372ee35b5662e4ba297cdd2f2da9"
          ],
          "data": "0x0000000000000000000000000000000000000000000000000000000000000080000000000000000000000000000000000000000000000000000000006967fa25000000000000000000000000000000000000000000000000000000006967f9e90000000000000000000000000000000000000000000000000000000005f5e10000000000000000000000000000000000000000000000000000000000000000065541323534370000000000000000000000000000000000000000000000000000",
          "blockHash": "0x49b351d90dce91804eb0683fc7d6d030ed3ee114f2145035da238b03a9718925",
          "blockNumber": "0x1fe370b",
          "blockTimestamp": "0x6967f0f7",
          "transactionHash": "0xdaa31fcb6517a31d6fea3fb776b7c7713dbb647c95f8671e11065acf389ce2ab",
          "transactionIndex": "0x1",
          "logIndex": "0x0",
          "removed": false
        }
      ],
      "logsBloom": "0x0000000000000000000000000000000000000000000000000000000800000000000000000000000000000000000000000000000400000c000000000000000000000000000000000000000000000000000000000000000000000000000000000000000000000000000000000000000000000000000000000000000000000000000000000000000000000000000000000000000000000000000000000000080000000000000000000000000000000000000000000000000000100000000000000000000000000000000000000000400000000000000000000000000000000000000000000000000000000000000000000000000000000000000000000000000009",
      "type": "0x2",
      "transactionHash": "0xdaa31fcb6517a31d6fea3fb776b7c7713dbb647c95f8671e11065acf389ce2ab",
      "transactionIndex": "0x1",
      "blockHash": "0x49b351d90dce91804eb0683fc7d6d030ed3ee114f2145035da238b03a9718925",
      "blockNumber": "0x1fe370b",
      "gasUsed": "0x32913bfb",
      "effectiveGasPrice": "0x132b3a0",
      "from": "0x5c24d44ea5c8324f71b5147d9aac500a90526750",
      "to": "0x2b52ca412b509f0dea4870e1d13ff33cac7f073c",
      "contractAddress": null,
      "l1Fee": "0x8500f49a5715",
      "l1FeeScalar": "0.01",
      "l1GasPrice": "0x3ce7fbba",
      "l1GasUsed": "0x1070",
      "tokenRatio": "0xd49"
    }
  ],
  "libraries": [],
  "pending": [],
  "returns": {},
  "timestamp": 1768419581155,
  "chain": 5003,
  "commit": "346c183"
}