{
  "transactions": [
    {
      "hash": "0xc113a7e959643396610ecc06dd8f7e59909d9d135befa4fdde0656d0e41f18d7",
      "transactionType": "CALL",
      "contractName": null,
      "contractAddress": "0x431119E3f9A2108B0D53BF3Ebbba057bFdF552d7",
      "function": "createFlightMarket(string,string,string,string,uint256,uint256)",
      "arguments": [
        "AA1653",
        "MIA",
        "DCA",
        "AA",
        "1779968075",
        "0"
      ],
      "transaction": {
        "from": "0x5c24d44ea5c8324f71b5147d9aac500a90526750",
        "to": "0x431119E3f9A2108B0D53BF3Ebbba057bFdF552d7",
        "gas": "0x4a6f2b28",
        "value": "0x0",
        "input": "0x860ebf5800000000000000000000000000000000000000000000000000000000000000c0000000000000000000000000000000000000000000000000000000000000010000000000000000000000000000000000000000000000000000000000000001400000000000000000000000000000000000000000000000000000000000000180000000000000000000000000000000000000000000000000000000006a18284b00000000000000000000000000000000000000000000000000000000000000000000000000000000000000000000000000000000000000000000000000000006414131363533000000000000000000000000000000000000000000000000000000000000000000000000000000000000000000000000000000000000000000034d494100000000000000000000000000000000000000000000000000000000000000000000000000000000000000000000000000000000000000000000000003444341000000000000000000000000000000000000000000000000000000000000000000000000000000000000000000000000000000000000000000000000024141000000000000000000000000000000000000000000000000000000000000",
        "nonce": "0x14",
        "chainId": "0x138b"
      },
      "additionalContracts": [],
      "isFixedGasLimit": false
    }
  ],
  "receipts": [
    {
      "status": "0x1",
      "cumulativeGasUsed": "0x2f5758cc",
      "logs": [
        {
          "address": "0x431119E3f9A2108B0D53BF3Ebbba057bFdF552d7",
          "topics": [
            "0x4c419e8b68c376bd288769f564f60006c6a3fa60237c4660537aaf841e7e1b30",
            "0x060269be14dbd829d864f527cb5d2da25b4c852d6b5dca58ab142704ed9f70f8"
          ],
          "data": "0x0000000000000000000000000000000000000000000000000000000000000080000000000000000000000000000000000000000000000000000000006a18284b000000000000000000000000000000000000000000000000000000006a1821430000000000000000000000000000000000000000000000000000000005f5e10000000000000000000000000000000000000000000000000000000000000000064141313635330000000000000000000000000000000000000000000000000000",
          "blockHash": "0x1a8ed40248d9f2a1e3c5825a3e67e4172d74c0cd5f0c60cac17aac6077b96e55",
          "blockNumber": "0x1fcacc5",
          "blockTimestamp": "0x6964dc6b",
          "transactionHash": "0xc113a7e959643396610ecc06dd8f7e59909d9d135befa4fdde0656d0e41f18d7",
          "transactionIndex": "0x1",
          "logIndex": "0x0",
          "removed": false
        }
      ],
      "logsBloom": "0x0000000000000000000000000000000000000000800000000000000000000000000000000000000000000000000000000000000c000008000000000000000000000000000000000000000000000000000800000000000000000000000000000000000000000000000000000000000000000000000002000000000000000000000000000000000000000000000000000000000000000000000000000000080000000008000000000000000000000000000000000000000000000000000000000000000000000000000000000000000000000000000000000000000000000000000000000000000000000000000000000000008000000000000000000000000000",
      "type": "0x2",
      "transactionHash": "0xc113a7e959643396610ecc06dd8f7e59909d9d135befa4fdde0656d0e41f18d7",
      "transactionIndex": "0x1",
      "blockHash": "0x1a8ed40248d9f2a1e3c5825a3e67e4172d74c0cd5f0c60cac17aac6077b96e55",
      "blockNumber": "0x1fcacc5",
      "gasUsed": "0x2f56a1bb",
      "effectiveGasPrice": "0x132b3a0",
      "from": "0x5c24d44ea5c8324f71b5147d9aac500a90526750",
      "to": "0x431119E3f9A2108B0D53BF3Ebbba057bFdF552d7",
      "contractAddress": null,
      "l1Fee": "0x28a8f77e61",
      "l1FeeScalar": "0.01",
      "l1GasPrice": "0x13d689",
      "l1GasUsed": "0x107c",
      "tokenRatio": "0xc6f"
    }
  ],
  "libraries": [],
  "pending": [],
  "returns": {},
  "timestamp": 1768217709057,
  "chain": 5003,
  "commit": "98a616d"
}