{
  "transactions": [
    {
      "hash": "0xe70ae2fe306b321ec954bbcdbd58220cb9c39562eb2b55e3a6048803cfb3e397",
      "transactionType": "CALL",
      "contractName": null,
      "contractAddress": "0x431119e3f9a2108b0d53bf3ebbba057bfdf552d7",
      "function": "createFlightMarket(string,string,string,string,uint256,uint256)",
      "arguments": [
        "TEST789",
        "JFK",
        "LAX",
        "AA",
        "1770928111",
        "0"
      ],
      "transaction": {
        "from": "0x5c24d44ea5c8324f71b5147d9aac500a90526750",
        "to": "0x431119e3f9a2108b0d53bf3ebbba057bfdf552d7",
        "gas": "0xd11f790d",
        "value": "0x0",
        "input": "0x860ebf5800000000000000000000000000000000000000000000000000000000000000c000000000000000000000000000000000000000000000000000000000000001000000000000000000000000000000000000000000000000000000000000000140000000000000000000000000000000000000000000000000000000000000018000000000000000000000000000000000000000000000000000000000698e37ef00000000000000000000000000000000000000000000000000000000000000000000000000000000000000000000000000000000000000000000000000000007544553543738390000000000000000000000000000000000000000000000000000000000000000000000000000000000000000000000000000000000000000034a464b000000000000000000000000000000000000000000000000000000000000000000000000000000000000000000000000000000000000000000000000034c4158000000000000000000000000000000000000000000000000000000000000000000000000000000000000000000000000000000000000000000000000024141000000000000000000000000000000000000000000000000000000000000",
        "nonce": "0x1d",
        "chainId": "0x138b"
      },
      "additionalContracts": [],
      "isFixedGasLimit": false
    }
  ],
  "receipts": [
    {
      "status": "0x1",
      "cumulativeGasUsed": "0x867af271",
      "logs": [
        {
          "address": "0x431119e3f9a2108b0d53bf3ebbba057bfdf552d7",
          "topics": [
            "0x4c419e8b68c376bd288769f564f60006c6a3fa60237c4660537aaf841e7e1b30",
            "0xf505de1426e91587b0784d504e12b28a29a354b8086952d6b39d3a4f4b15102f"
          ],
          "data": "0x000000000000000000000000000000000000000000000000000000000000008000000000000000000000000000000000000000000000000000000000698e37ef00000000000000000000000000000000000000000000000000000000698e30e70000000000000000000000000000000000000000000000000000000005f5e10000000000000000000000000000000000000000000000000000000000000000075445535437383900000000000000000000000000000000000000000000000000",
          "blockHash": "0x40a9f1dd38ee7156457b5b7269719fabe3848d33466580c723607890e498697d",
          "blockNumber": "0x1fd9417",
          "blockTimestamp": "0x6966ab0f",
          "transactionHash": "0xe70ae2fe306b321ec954bbcdbd58220cb9c39562eb2b55e3a6048803cfb3e397",
          "transactionIndex": "0x1",
          "logIndex": "0x0",
          "removed": false
        }
      ],
      "logsBloom": "0x00000000000000000000000000000000000000000000020000000000000000000000000000000000000020000000000000000004000808000000000000000000000000000000000000000000000000000000000000000000000000000000000000000000000000000000000000004000000000000000000000000000000002000000000000000000000000000000000000000000000000000000000000080000400000000000000000000000000000000000000000000000000000000000000000000000000000000000000000000000000000000000000000000000000000000000000000000000000000000000000000000000000000000000000000000000",
      "type": "0x2",
      "transactionHash": "0xe70ae2fe306b321ec954bbcdbd58220cb9c39562eb2b55e3a6048803cfb3e397",
      "transactionIndex": "0x1",
      "blockHash": "0x40a9f1dd38ee7156457b5b7269719fabe3848d33466580c723607890e498697d",
      "blockNumber": "0x1fd9417",
      "gasUsed": "0x867a3b54",
      "effectiveGasPrice": "0x132b3a0",
      "from": "0x5c24d44ea5c8324f71b5147d9aac500a90526750",
      "to": "0x431119e3f9a2108b0d53bf3ebbba057bfdf552d7",
      "contractAddress": null,
      "l1Fee": "0x62b95f865a5971",
      "l1FeeScalar": "0.01",
      "l1GasPrice": "0x2e459c3f25",
      "l1GasUsed": "0x1088",
      "tokenRatio": "0xce8"
    }
  ],
  "libraries": [],
  "pending": [],
  "returns": {},
  "timestamp": 1768336144041,
  "chain": 5003,
  "commit": "5915b9b"
}