{
  "transactions": [
    {
      "hash": "0x679e130e25c83cbd52b6a54636e1f02934d058f1c292033be8263415d33b8c5f",
      "transactionType": "CALL",
      "contractName": null,
      "contractAddress": "0x2b52ca412B509F0deA4870e1d13Ff33cAC7f073C",
      "function": "createFlightMarket(string,string,string,string,uint256,uint256)",
      "arguments": [
        "DL4892",
        "JFK",
        "LHR",
        "DL",
        "1768340141",
        "0"
      ],
      "transaction": {
        "from": "0x5c24d44ea5c8324f71b5147d9aac500a90526750",
        "to": "0x2b52ca412B509F0deA4870e1d13Ff33cAC7f073C",
        "gas": "0x52d6ac03",
        "value": "0x0",
        "input": "0x860ebf5800000000000000000000000000000000000000000000000000000000000000c0000000000000000000000000000000000000000000000000000000000000010000000000000000000000000000000000000000000000000000000000000001400000000000000000000000000000000000000000000000000000000000000180000000000000000000000000000000000000000000000000000000006966baad00000000000000000000000000000000000000000000000000000000000000000000000000000000000000000000000000000000000000000000000000000006444c34383932000000000000000000000000000000000000000000000000000000000000000000000000000000000000000000000000000000000000000000034a464b000000000000000000000000000000000000000000000000000000000000000000000000000000000000000000000000000000000000000000000000034c485200000000000000000000000000000000000000000000000000000000000000000000000000000000000000000000000000000000000000000000000002444c000000000000000000000000000000000000000000000000000000000000",
        "nonce": "0x1f",
        "chainId": "0x138b"
      },
      "additionalContracts": [],
      "isFixedGasLimit": false
    }
  ],
  "receipts": [
    {
      "status": "0x1",
      "cumulativeGasUsed": "0x349dd09b",
      "logs": [
        {
          "address": "0x2b52ca412B509F0deA4870e1d13Ff33cAC7f073C",
          "topics": [
            "0x4c419e8b68c376bd288769f564f60006c6a3fa60237c4660537aaf841e7e1b30",
            "0x13429e201664d22076bea6971b186e3876124cb89abb002199a7225244ef2685"
          ],
          "data": "0x0000000000000000000000000000000000000000000000000000000000000080000000000000000000000000000000000000000000000000000000006966baad000000000000000000000000000000000000000000000000000000006966b3a50000000000000000000000000000000000000000000000000000000005f5e1000000000000000000000000000000000000000000000000000000000000000006444c343839320000000000000000000000000000000000000000000000000000",
          "blockHash": "0x26c7a8661734b1590d33ab189589f6bdea33984ee0d2231577b83e0e3af96bc3",
          "blockNumber": "0x1fd94ee",
          "blockTimestamp": "0x6966acbd",
          "transactionHash": "0x679e130e25c83cbd52b6a54636e1f02934d058f1c292033be8263415d33b8c5f",
          "transactionIndex": "0x1",
          "logIndex": "0x0",
          "removed": false
        }
      ],
      "logsBloom": "0x00000000000000000000000000000000000000000000000000000000000000000000000000000000000020000000000000000004000008000000000000000000000000000040000000000000000000000000000000000000400000000000000000000000000000000000000000004000000000000000000000000000000002000000000000000000000000000000000000000000000000000000000000080000000000000000000000000000000000000000000000000000000000000000000000000000000000000000000000000000000000000000000000000000000000000000000000000000080000000000000000000000000000000000000000000000",
      "type": "0x2",
      "transactionHash": "0x679e130e25c83cbd52b6a54636e1f02934d058f1c292033be8263415d33b8c5f",
      "transactionIndex": "0x1",
      "blockHash": "0x26c7a8661734b1590d33ab189589f6bdea33984ee0d2231577b83e0e3af96bc3",
      "blockNumber": "0x1fd94ee",
      "gasUsed": "0x349d197e",
      "effectiveGasPrice": "0x132b3a0",
      "from": "0x5c24d44ea5c8324f71b5147d9aac500a90526750",
      "to": "0x2b52ca412B509F0deA4870e1d13Ff33cAC7f073C",
      "contractAddress": null,
      "l1Fee": "0x4af2d7aa11a7c",
      "l1FeeScalar": "0.01",
      "l1GasPrice": "0x233a6e242",
      "l1GasUsed": "0x107c",
      "tokenRatio": "0xce8"
    }
  ],
  "libraries": [],
  "pending": [],
  "returns": {},
  "timestamp": 1768336573722,
  "chain": 5003,
  "commit": "5915b9b"
}