{
  "transactions": [
    {
      "hash": "0x0e9c544b5443cd13bfbc68817932ca2dd82fb835e0416d5bfd6d4f5c3826fb27",
      "transactionType": "CALL",
      "contractName": null,
      "contractAddress": "0x2b52ca412B509F0deA4870e1d13Ff33cAC7f073C",
      "function": "createFlightMarket(string,string,string,string,uint256,uint256)",
      "arguments": [
        "DL4892",
        "JFK",
        "LHR",
        "DL",
        "1778412487",
        "0"
      ],
      "transaction": {
        "from": "0x5c24d44ea5c8324f71b5147d9aac500a90526750",
        "to": "0x2b52ca412B509F0deA4870e1d13Ff33cAC7f073C",
        "gas": "0x4a6e2d02",
        "value": "0x0",
        "input": "0x860ebf5800000000000000000000000000000000000000000000000000000000000000c0000000000000000000000000000000000000000000000000000000000000010000000000000000000000000000000000000000000000000000000000000001400000000000000000000000000000000000000000000000000000000000000180000000000000000000000000000000000000000000000000000000006a006bc700000000000000000000000000000000000000000000000000000000000000000000000000000000000000000000000000000000000000000000000000000006444c34383932000000000000000000000000000000000000000000000000000000000000000000000000000000000000000000000000000000000000000000034a464b000000000000000000000000000000000000000000000000000000000000000000000000000000000000000000000000000000000000000000000000034c485200000000000000000000000000000000000000000000000000000000000000000000000000000000000000000000000000000000000000000000000002444c000000000000000000000000000000000000000000000000000000000000",
        "nonce": "0x13",
        "chainId": "0x138b"
      },
      "additionalContracts": [],
      "isFixedGasLimit": false
    }
  ],
  "receipts": [
    {
      "status": "0x1",
      "cumulativeGasUsed": "0x2f56be1e",
      "logs": [
        {
          "address": "0x2b52ca412B509F0deA4870e1d13Ff33cAC7f073C",
          "topics": [
            "0x4c419e8b68c376bd288769f564f60006c6a3fa60237c4660537aaf841e7e1b30",
            "0x546e2bf8acc73a7433abe0f5edef43dd6fd2615b7bd2eda6c10740773bd70c86"
          ],
          "data": "0x0000000000000000000000000000000000000000000000000000000000000080000000000000000000000000000000000000000000000000000000006a006bc7000000000000000000000000000000000000000000000000000000006a0064bf0000000000000000000000000000000000000000000000000000000005f5e1000000000000000000000000000000000000000000000000000000000000000006444c343839320000000000000000000000000000000000000000000000000000",
          "blockHash": "0xe9b7f171a78d01d737707047e9f9797a93566814d517c585988a87e398420a41",
          "blockNumber": "0x1fcac05",
          "blockTimestamp": "0x6964daeb",
          "transactionHash": "0x0e9c544b5443cd13bfbc68817932ca2dd82fb835e0416d5bfd6d4f5c3826fb27",
          "transactionIndex": "0x1",
          "logIndex": "0x0",
          "removed": false
        }
      ],
      "logsBloom": "0x0000000000000000000000000000000000000000000000000000000000000000000000000000000000000000000000000000000c000008000000000000000000000000000000000000000000000000000000000000000000000000000040000000000000000000000000010000000000000000000002000000000000000000000000000000000000000000000000000000000000000000000000000000080000000008000000000000000000000000000000000000000000000000000000000000000000000000000000000000000000000000000000000000000000020000000000000000000000000000000000000000000000000000000000000000000000",
      "type": "0x2",
      "transactionHash": "0x0e9c544b5443cd13bfbc68817932ca2dd82fb835e0416d5bfd6d4f5c3826fb27",
      "transactionIndex": "0x1",
      "blockHash": "0xe9b7f171a78d01d737707047e9f9797a93566814d517c585988a87e398420a41",
      "blockNumber": "0x1fcac05",
      "gasUsed": "0x2f56070d",
      "effectiveGasPrice": "0x1312d01",
      "from": "0x5c24d44ea5c8324f71b5147d9aac500a90526750",
      "to": "0x2b52ca412B509F0deA4870e1d13Ff33cAC7f073C",
      "contractAddress": null,
      "l1Fee": "0x1d61a7e1f6",
      "l1FeeScalar": "0.01",
      "l1GasPrice": "0xe8abf",
      "l1GasUsed": "0x1040",
      "tokenRatio": "0xc6f"
    }
  ],
  "libraries": [],
  "pending": [],
  "returns": {},
  "timestamp": 1768217325941,
  "chain": 5003,
  "commit": "98a616d"
}