{
  "transactions": [
    {
      "hash": "0x6415361688d0f0dad66618e562873fabf9f87a7c69c563e1919fba0f76b0bf39",
      "transactionType": "CALL",
      "contractName": null,
      "contractAddress": "0x431119E3f9A2108B0D53BF3Ebbba057bFdF552d7",
      "function": "createFlightMarket(string,string,string,string,uint256,uint256)",
      "arguments": [
        "TEST789",
        "JFK",
        "LAX",
        "AA",
        "1770834251",
        "0"
      ],
      "transaction": {
        "from": "0x5c24d44ea5c8324f71b5147d9aac500a90526750",
        "to": "0x431119E3f9A2108B0D53BF3Ebbba057bFdF552d7",
        "gas": "0x51d46c3c",
        "value": "0x0",
        "input": "0x860ebf5800000000000000000000000000000000000000000000000000000000000000c000000000000000000000000000000000000000000000000000000000000001000000000000000000000000000000000000000000000000000000000000000140000000000000000000000000000000000000000000000000000000000000018000000000000000000000000000000000000000000000000000000000698cc94b00000000000000000000000000000000000000000000000000000000000000000000000000000000000000000000000000000000000000000000000000000007544553543738390000000000000000000000000000000000000000000000000000000000000000000000000000000000000000000000000000000000000000034a464b000000000000000000000000000000000000000000000000000000000000000000000000000000000000000000000000000000000000000000000000034c4158000000000000000000000000000000000000000000000000000000000000000000000000000000000000000000000000000000000000000000000000024141000000000000000000000000000000000000000000000000000000000000",
        "nonce": "0x1b",
        "chainId": "0x138b"
      },
      "additionalContracts": [],
      "isFixedGasLimit": false
    }
  ],
  "receipts": [
    {
      "status": "0x1",
      "cumulativeGasUsed": "0x341a8161",
      "logs": [
        {
          "address": "0x431119E3f9A2108B0D53BF3Ebbba057bFdF552d7",
          "topics": [
            "0x4c419e8b68c376bd288769f564f60006c6a3fa60237c4660537aaf841e7e1b30",
            "0xf41e5c6b23d4e6522995fa23109e74abe9fa6e5e982a2e53fb82eb079675eda5"
          ],
          "data": "0x000000000000000000000000000000000000000000000000000000000000008000000000000000000000000000000000000000000000000000000000698cc94b00000000000000000000000000000000000000000000000000000000698cc2430000000000000000000000000000000000000000000000000000000005f5e10000000000000000000000000000000000000000000000000000000000000000075445535437383900000000000000000000000000000000000000000000000000",
          "blockHash": "0x5c429610f67d18c2b7151bb00575e375d1b7b2953785097ff1295b9623207f89",
          "blockNumber": "0x1fcdcea",
          "blockTimestamp": "0x69653cb5",
          "transactionHash": "0x6415361688d0f0dad66618e562873fabf9f87a7c69c563e1919fba0f76b0bf39",
          "transactionIndex": "0x1",
          "logIndex": "0x0",
          "removed": false
        }
      ],
      "logsBloom": "0x00000000000000000000000000000000000000000000000000000000000000000000000000000000000000010000000000000004000008000000000000000000000000000000200000000000000000000000000000000000000000000000000000000000000000000000000000000000000000000000000000000010000000000000000000000000000000000000000000000000000000000000000000080000000000000000000000000000000000000000000000000000000000000000000000000000000000000000000080000000000000000000000000000000000000000000000000000000000000010000000000000000000000400000000000000000",
      "type": "0x2",
      "transactionHash": "0x6415361688d0f0dad66618e562873fabf9f87a7c69c563e1919fba0f76b0bf39",
      "transactionIndex": "0x1",
      "blockHash": "0x5c429610f67d18c2b7151bb00575e375d1b7b2953785097ff1295b9623207f89",
      "blockNumber": "0x1fcdcea",
      "gasUsed": "0x34198784",
      "effectiveGasPrice": "0x132b3a0",
      "from": "0x5c24d44ea5c8324f71b5147d9aac500a90526750",
      "to": "0x431119E3f9A2108B0D53BF3Ebbba057bFdF552d7",
      "contractAddress": null,
      "l1Fee": "0x8bcf98242efd",
      "l1FeeScalar": "0.01",
      "l1GasPrice": "0x4211b5b4",
      "l1GasUsed": "0x1088",
      "tokenRatio": "0xccd"
    }
  ],
  "libraries": [],
  "pending": [],
  "returns": {},
  "timestamp": 1768242360902,
  "chain": 5003,
  "commit": "98a616d"
}