{
  "transactions": [
    {
      "hash": "0x1e17cd6f8a8b3ae89ae10c419e8dc616fb84dbece77bae0a82abb521e5a2a93e",
      "transactionType": "CALL",
      "contractName": null,
      "contractAddress": "0x2b52ca412B509F0deA4870e1d13Ff33cAC7f073C",
      "function": "createFlightMarket(string,string,string,string,uint256,uint256)",
      "arguments": [
        "UA2547",
        "ORD",
        "LAX",
        "UA",
        "1768338801",
        "0"
      ],
      "transaction": {
        "from": "0x5c24d44ea5c8324f71b5147d9aac500a90526750",
        "to": "0x2b52ca412B509F0deA4870e1d13Ff33cAC7f073C",
        "gas": "0x589ba947",
        "value": "0x0",
        "input": "0x860ebf5800000000000000000000000000000000000000000000000000000000000000c0000000000000000000000000000000000000000000000000000000000000010000000000000000000000000000000000000000000000000000000000000001400000000000000000000000000000000000000000000000000000000000000180000000000000000000000000000000000000000000000000000000006966b57100000000000000000000000000000000000000000000000000000000000000000000000000000000000000000000000000000000000000000000000000000006554132353437000000000000000000000000000000000000000000000000000000000000000000000000000000000000000000000000000000000000000000034f5244000000000000000000000000000000000000000000000000000000000000000000000000000000000000000000000000000000000000000000000000034c4158000000000000000000000000000000000000000000000000000000000000000000000000000000000000000000000000000000000000000000000000025541000000000000000000000000000000000000000000000000000000000000",
        "nonce": "0x1e",
        "chainId": "0x138b"
      },
      "additionalContracts": [],
      "isFixedGasLimit": false
    }
  ],
  "receipts": [
    {
      "status": "0x1",
      "cumulativeGasUsed": "0x387ee6a8",
      "logs": [
        {
          "address": "0x2b52ca412B509F0deA4870e1d13Ff33cAC7f073C",
          "topics": [
            "0x4c419e8b68c376bd288769f564f60006c6a3fa60237c4660537aaf841e7e1b30",
            "0x8c4ac51f57f59140f64afc5913c7de2ee0e58d73d39ff5f8df86643434295466"
          ],
          "data": "0x0000000000000000000000000000000000000000000000000000000000000080000000000000000000000000000000000000000000000000000000006966b571000000000000000000000000000000000000000000000000000000006966ae690000000000000000000000000000000000000000000000000000000005f5e10000000000000000000000000000000000000000000000000000000000000000065541323534370000000000000000000000000000000000000000000000000000",
          "blockHash": "0xeb95513b6c0cdfc395c06b3a0a6fa3e8ff2e3025eea23b14f37413e796ba6309",
          "blockNumber": "0x1fd94a8",
          "blockTimestamp": "0x6966ac31",
          "transactionHash": "0x1e17cd6f8a8b3ae89ae10c419e8dc616fb84dbece77bae0a82abb521e5a2a93e",
          "transactionIndex": "0x1",
          "logIndex": "0x0",
          "removed": false
        }
      ],
      "logsBloom": "0x00000000000000000000000000000000000000000000000000000000000000000000000000000000000020000000000000000004000008000000000000000000000000000000000000000000000000000000000000000000000000000000000200000000000000000000000010004000000000000000000000000000000002000000000000000000000000000000000000000000000000000000000000080000000000000000000000000000000000000000000000000000000000000000000000000000000000000000400000000000000000000000000000000000000000000000000000000000000000000000000000000000000000000000000000000000",
      "type": "0x2",
      "transactionHash": "0x1e17cd6f8a8b3ae89ae10c419e8dc616fb84dbece77bae0a82abb521e5a2a93e",
      "transactionIndex": "0x1",
      "blockHash": "0xeb95513b6c0cdfc395c06b3a0a6fa3e8ff2e3025eea23b14f37413e796ba6309",
      "blockNumber": "0x1fd94a8",
      "gasUsed": "0x387e2f7f",
      "effectiveGasPrice": "0x132b3a0",
      "from": "0x5c24d44ea5c8324f71b5147d9aac500a90526750",
      "to": "0x2b52ca412B509F0deA4870e1d13Ff33cAC7f073C",
      "contractAddress": null,
      "l1Fee": "0x954f2ccf16138",
      "l1FeeScalar": "0.01",
      "l1GasPrice": "0x462e1db45",
      "l1GasUsed": "0x107c",
      "tokenRatio": "0xce8"
    }
  ],
  "libraries": [],
  "pending": [],
  "returns": {},
  "timestamp": 1768336434850,
  "chain": 5003,
  "commit": "5915b9b"
}