{
  "transactions": [
    {
      "hash": "0xc16fde3205411a173bf42ec2490ed243eb7052406b417999eaccd5bf49133d2b",
      "transactionType": "CALL",
      "contractName": null,
      "contractAddress": "0x2b52ca412B509F0deA4870e1d13Ff33cAC7f073C",
      "function": "createFlightMarket(string,string,string,string,uint256,uint256)",
      "arguments": [
        "UA2547",
        "ORD",
        "LAX",
        "UA",
        "1777547957",
        "0"
      ],
      "transaction": {
        "from": "0x5c24d44ea5c8324f71b5147d9aac500a90526750",
        "to": "0x2b52ca412B509F0deA4870e1d13Ff33cAC7f073C",
        "gas": "0x4a8710f0",
        "value": "0x0",
        "input": "0x860ebf5800000000000000000000000000000000000000000000000000000000000000c00000000000000000000000000000000000000000000000000000000000000100000000000000000000000000000000000000000000000000000000000000014000000000000000000000000000000000000000000000000000000000000001800000000000000000000000000000000000000000000000000000000069f33ab500000000000000000000000000000000000000000000000000000000000000000000000000000000000000000000000000000000000000000000000000000006554132353437000000000000000000000000000000000000000000000000000000000000000000000000000000000000000000000000000000000000000000034f5244000000000000000000000000000000000000000000000000000000000000000000000000000000000000000000000000000000000000000000000000034c4158000000000000000000000000000000000000000000000000000000000000000000000000000000000000000000000000000000000000000000000000025541000000000000000000000000000000000000000000000000000000000000",
        "nonce": "0x12",
        "chainId": "0x138b"
      },
      "additionalContracts": [],
      "isFixedGasLimit": false
    }
  ],
  "receipts": [
    {
      "status": "0x1",
      "cumulativeGasUsed": "0x2f66937b",
      "logs": [
        {
          "address": "0x2b52ca412B509F0deA4870e1d13Ff33cAC7f073C",
          "topics": [
            "0x4c419e8b68c376bd288769f564f60006c6a3fa60237c4660537aaf841e7e1b30",
            "0x08782a83255e5aee7fde335588ba42c72aa310e93174dd50cc626770c7a0255d"
          ],
          "data": "0x00000000000000000000000000000000000000000000000000000000000000800000000000000000000000000000000000000000000000000000000069f33ab50000000000000000000000000000000000000000000000000000000069f333ad0000000000000000000000000000000000000000000000000000000005f5e10000000000000000000000000000000000000000000000000000000000000000065541323534370000000000000000000000000000000000000000000000000000",
          "blockHash": "0x4eca9c7f07151ba6033d4a69515b91d95db34f6cfd06ea9fefb2c9bafe3a8488",
          "blockNumber": "0x1fcaafc",
          "blockTimestamp": "0x6964d8d9",
          "transactionHash": "0xc16fde3205411a173bf42ec2490ed243eb7052406b417999eaccd5bf49133d2b",
          "transactionIndex": "0x1",
          "logIndex": "0x0",
          "removed": false
        }
      ],
      "logsBloom": "0x0000000000000000000000000000000000000000000000000000000000080000000000000000000000000000000000000000000c000008000000000000000000000000000000000000000000000000000000000000000000000000000000000000000000000000000000000004000000000000000002000000000000000000000000000000000000000000000400000000000000000000000000000000080000000008000000000000000000000000000000000000000000000000000000000000000000000000000000000000000000000000000000000000000000000000000000000000000000000000000000000000000000000000000000000000000000",
      "type": "0x2",
      "transactionHash": "0xc16fde3205411a173bf42ec2490ed243eb7052406b417999eaccd5bf49133d2b",
      "transactionIndex": "0x1",
      "blockHash": "0x4eca9c7f07151ba6033d4a69515b91d95db34f6cfd06ea9fefb2c9bafe3a8488",
      "blockNumber": "0x1fcaafc",
      "gasUsed": "0x2f65dc6a",
      "effectiveGasPrice": "0x132b3a0",
      "from": "0x5c24d44ea5c8324f71b5147d9aac500a90526750",
      "to": "0x2b52ca412B509F0deA4870e1d13Ff33cAC7f073C",
      "contractAddress": null,
      "l1Fee": "0x2cce13794e",
      "l1FeeScalar": "0.01",
      "l1GasPrice": "0x15d53a",
      "l1GasUsed": "0x107c",
      "tokenRatio": "0xc73"
    }
  ],
  "libraries": [],
  "pending": [],
  "returns": {},
  "timestamp": 1768216796573,
  "chain": 5003,
  "commit": "98a616d"
}