{
  "transactions": [
    {
      "hash": "0x64a995e221056fb3c31ead1f50601dac057f35f591a8a0d06345d55b5b79815b",
      "transactionType": "CALL",
      "contractName": null,
      "contractAddress": "0x431119e3f9a2108b0d53bf3ebbba057bfdf552d7",
      "function": "createFlightMarket(string,string,string,string,uint256,uint256)",
      "arguments": [
        "AA1653",
        "MIA",
        "DCA",
        "AA",
        "1768340825",
        "0"
      ],
      "transaction": {
        "from": "0x5c24d44ea5c8324f71b5147d9aac500a90526750",
        "to": "0x431119e3f9a2108b0d53bf3ebbba057bfdf552d7",
        "gas": "0x516c1eee",
        "value": "0x0",
        "input": "0x860ebf5800000000000000000000000000000000000000000000000000000000000000c0000000000000000000000000000000000000000000000000000000000000010000000000000000000000000000000000000000000000000000000000000001400000000000000000000000000000000000000000000000000000000000000180000000000000000000000000000000000000000000000000000000006966bd5900000000000000000000000000000000000000000000000000000000000000000000000000000000000000000000000000000000000000000000000000000006414131363533000000000000000000000000000000000000000000000000000000000000000000000000000000000000000000000000000000000000000000034d494100000000000000000000000000000000000000000000000000000000000000000000000000000000000000000000000000000000000000000000000003444341000000000000000000000000000000000000000000000000000000000000000000000000000000000000000000000000000000000000000000000000024141000000000000000000000000000000000000000000000000000000000000",
        "nonce": "0x20",
        "chainId": "0x138b"
      },
      "additionalContracts": [],
      "isFixedGasLimit": false
    }
  ],
  "receipts": [
    {
      "status": "0x1",
      "cumulativeGasUsed": "0x398bca69",
      "logs": [
        {
          "address": "0x431119e3f9a2108b0d53bf3ebbba057bfdf552d7",
          "topics": [
            "0x4c419e8b68c376bd288769f564f60006c6a3fa60237c4660537aaf841e7e1b30",
            "0x6d274debea1e34fc9dbd926036b28a34deb767426d119af9c9eae85eb692ef01"
          ],
          "data": "0x0000000000000000000000000000000000000000000000000000000000000080000000000000000000000000000000000000000000000000000000006966bd59000000000000000000000000000000000000000000000000000000006966b6510000000000000000000000000000000000000000000000000000000005f5e10000000000000000000000000000000000000000000000000000000000000000064141313635330000000000000000000000000000000000000000000000000000",
          "blockHash": "0xe3ff19298e441be683703e444a2236ab1de5e211337d0988d8ea0adfc6ccf36f",
          "blockNumber": "0x1fd951a",
          "blockTimestamp": "0x6966ad15",
          "transactionHash": "0x64a995e221056fb3c31ead1f50601dac057f35f591a8a0d06345d55b5b79815b",
          "transactionIndex": "0x2",
          "logIndex": "0x0",
          "removed": false
        }
      ],
      "logsBloom": "0x00000000000000000000000000000000000000000000000000000000000000000000000000000000000020000000000000000004000008000000000000000000000000000000000000000000000000000000000000000000000000000000000000000000000000000000000000004000000000000000000000000000000002000000000000000000000000000000000000000000000000000000000000080000000400000000000000000000000002000000000000000000000000000020000000000000000000000000000000000000000000000000000000000000000000000000000000000000000000000000000000000000000000000000000000000000",
      "type": "0x2",
      "transactionHash": "0x64a995e221056fb3c31ead1f50601dac057f35f591a8a0d06345d55b5b79815b",
      "transactionIndex": "0x2",
      "blockHash": "0xe3ff19298e441be683703e444a2236ab1de5e211337d0988d8ea0adfc6ccf36f",
      "blockNumber": "0x1fd951a",
      "gasUsed": "0x33d72f8f",
      "effectiveGasPrice": "0x132b3a0",
      "from": "0x5c24d44ea5c8324f71b5147d9aac500a90526750",
      "to": "0x431119e3f9a2108b0d53bf3ebbba057bfdf552d7",
      "contractAddress": null,
      "l1Fee": "0x3d8a61d777bf1",
      "l1FeeScalar": "0.01",
      "l1GasPrice": "0x1cf849878",
      "l1GasUsed": "0x107c",
      "tokenRatio": "0xce3"
    }
  ],
  "libraries": [],
  "pending": [],
  "returns": {},
  "timestamp": 1768336663622,
  "chain": 5003,
  "commit": "5915b9b"
}